Archive member included to satisfy reference by file (symbol)

c:/nxp/mcuxpressoide_10.2.1_795/ide/tools/bin/../lib/gcc/arm-none-eabi/7.2.1/thumb/v6-m\libgcc.a(_udivsi3.o)
                              ./utilities/fsl_debug_console.o (__aeabi_uidiv)
c:/nxp/mcuxpressoide_10.2.1_795/ide/tools/bin/../lib/gcc/arm-none-eabi/7.2.1/thumb/v6-m\libgcc.a(_divsi3.o)
                              ./utilities/fsl_debug_console.o (__aeabi_idiv)
c:/nxp/mcuxpressoide_10.2.1_795/ide/tools/bin/../lib/gcc/arm-none-eabi/7.2.1/thumb/v6-m\libgcc.a(_dvmd_tls.o)
                              c:/nxp/mcuxpressoide_10.2.1_795/ide/tools/bin/../lib/gcc/arm-none-eabi/7.2.1/thumb/v6-m\libgcc.a(_udivsi3.o) (__aeabi_idiv0)
c:/nxp/mcuxpressoide_10.2.1_795/ide/tools/bin/../lib/gcc/arm-none-eabi/7.2.1/thumb/v6-m\libgcc.a(unwind-arm.o)
                              ./startup/startup_mkl25z4.o (__aeabi_unwind_cpp_pr0)
c:/nxp/mcuxpressoide_10.2.1_795/ide/tools/bin/../lib/gcc/arm-none-eabi/7.2.1/thumb/v6-m\libgcc.a(libunwind.o)
                              c:/nxp/mcuxpressoide_10.2.1_795/ide/tools/bin/../lib/gcc/arm-none-eabi/7.2.1/thumb/v6-m\libgcc.a(unwind-arm.o) (restore_core_regs)
c:/nxp/mcuxpressoide_10.2.1_795/ide/tools/bin/../lib/gcc/arm-none-eabi/7.2.1/thumb/v6-m\libgcc.a(pr-support.o)
                              c:/nxp/mcuxpressoide_10.2.1_795/ide/tools/bin/../lib/gcc/arm-none-eabi/7.2.1/thumb/v6-m\libgcc.a(unwind-arm.o) (__gnu_unwind_execute)
c:/nxp/mcuxpressoide_10.2.1_795/ide/tools/bin/../lib/gcc/arm-none-eabi/7.2.1/../../../../arm-none-eabi/lib/thumb/v6-m\libc_nano.a(lib_a-abort.o)
                              c:/nxp/mcuxpressoide_10.2.1_795/ide/tools/bin/../lib/gcc/arm-none-eabi/7.2.1/thumb/v6-m\libgcc.a(unwind-arm.o) (abort)
c:/nxp/mcuxpressoide_10.2.1_795/ide/tools/bin/../lib/gcc/arm-none-eabi/7.2.1/../../../../arm-none-eabi/lib/thumb/v6-m\libc_nano.a(lib_a-init.o)
                              ./startup/startup_mkl25z4.o (__libc_init_array)
c:/nxp/mcuxpressoide_10.2.1_795/ide/tools/bin/../lib/gcc/arm-none-eabi/7.2.1/../../../../arm-none-eabi/lib/thumb/v6-m\libc_nano.a(lib_a-memcpy-stub.o)
                              ./drivers/fsl_flash.o (memcpy)
c:/nxp/mcuxpressoide_10.2.1_795/ide/tools/bin/../lib/gcc/arm-none-eabi/7.2.1/../../../../arm-none-eabi/lib/thumb/v6-m\libc_nano.a(lib_a-memset.o)
                              ./drivers/fsl_dma.o (memset)
c:/nxp/mcuxpressoide_10.2.1_795/ide/tools/bin/../lib/gcc/arm-none-eabi/7.2.1/../../../../arm-none-eabi/lib/thumb/v6-m\libc_nano.a(lib_a-signal.o)
                              c:/nxp/mcuxpressoide_10.2.1_795/ide/tools/bin/../lib/gcc/arm-none-eabi/7.2.1/../../../../arm-none-eabi/lib/thumb/v6-m\libc_nano.a(lib_a-abort.o) (raise)
c:/nxp/mcuxpressoide_10.2.1_795/ide/tools/bin/../lib/gcc/arm-none-eabi/7.2.1/../../../../arm-none-eabi/lib/thumb/v6-m\libc_nano.a(lib_a-signalr.o)
                              c:/nxp/mcuxpressoide_10.2.1_795/ide/tools/bin/../lib/gcc/arm-none-eabi/7.2.1/../../../../arm-none-eabi/lib/thumb/v6-m\libc_nano.a(lib_a-signal.o) (_kill_r)
c:/nxp/mcuxpressoide_10.2.1_795/ide/tools/bin/../lib/gcc/arm-none-eabi/7.2.1/../../../../arm-none-eabi/lib/thumb/v6-m\libc_nano.a(lib_a-strlen.o)
                              ./utilities/fsl_debug_console.o (strlen)
c:/nxp/mcuxpressoide_10.2.1_795/ide/tools/bin/../lib/gcc/arm-none-eabi/7.2.1/../../../../arm-none-eabi/lib/thumb/v6-m\libc_nano.a(lib_a-impure.o)
                              c:/nxp/mcuxpressoide_10.2.1_795/ide/tools/bin/../lib/gcc/arm-none-eabi/7.2.1/../../../../arm-none-eabi/lib/thumb/v6-m\libc_nano.a(lib_a-signal.o) (_impure_ptr)
c:/nxp/mcuxpressoide_10.2.1_795/ide/tools/bin/../lib/gcc/arm-none-eabi/7.2.1/../../../../arm-none-eabi/lib/thumb/v6-m\libc_nano.a(lib_a-nano-mallocr.o)
                              c:/nxp/mcuxpressoide_10.2.1_795/ide/tools/bin/../lib/gcc/arm-none-eabi/7.2.1/../../../../arm-none-eabi/lib/thumb/v6-m\libc_nano.a(lib_a-signal.o) (_malloc_r)
c:/nxp/mcuxpressoide_10.2.1_795/ide/tools/bin/../lib/gcc/arm-none-eabi/7.2.1/../../../../arm-none-eabi/lib/thumb/v6-m\libc_nano.a(lib_a-reent.o)
                              c:/nxp/mcuxpressoide_10.2.1_795/ide/tools/bin/../lib/gcc/arm-none-eabi/7.2.1/../../../../arm-none-eabi/lib/thumb/v6-m\libc_nano.a(lib_a-signalr.o) (errno)
c:/nxp/mcuxpressoide_10.2.1_795/ide/tools/bin/../lib/gcc/arm-none-eabi/7.2.1/../../../../arm-none-eabi/lib/thumb/v6-m\libc_nano.a(lib_a-sbrkr.o)
                              c:/nxp/mcuxpressoide_10.2.1_795/ide/tools/bin/../lib/gcc/arm-none-eabi/7.2.1/../../../../arm-none-eabi/lib/thumb/v6-m\libc_nano.a(lib_a-nano-mallocr.o) (_sbrk_r)
c:/nxp/mcuxpressoide_10.2.1_795/ide/tools/bin/../lib/gcc/arm-none-eabi/7.2.1/../../../../arm-none-eabi/lib/thumb/v6-m\libc_nano.a(lib_a-mlock.o)
                              c:/nxp/mcuxpressoide_10.2.1_795/ide/tools/bin/../lib/gcc/arm-none-eabi/7.2.1/../../../../arm-none-eabi/lib/thumb/v6-m\libc_nano.a(lib_a-nano-mallocr.o) (__malloc_lock)
c:/nxp/mcuxpressoide_10.2.1_795/ide/tools/bin/../lib/gcc/arm-none-eabi/7.2.1/../../../../arm-none-eabi/lib/thumb/v6-m\libc_nano.a(lib_a-nano-freer.o)
                              c:/nxp/mcuxpressoide_10.2.1_795/ide/tools/bin/../lib/gcc/arm-none-eabi/7.2.1/../../../../arm-none-eabi/lib/thumb/v6-m\libc_nano.a(lib_a-reent.o) (_free_r)
c:/nxp/mcuxpressoide_10.2.1_795/ide/tools/bin/../lib/gcc/arm-none-eabi/7.2.1/../../../../arm-none-eabi/lib/thumb/v6-m\libcr_newlib_nohost.a(_cr_sbrk.o)
                              c:/nxp/mcuxpressoide_10.2.1_795/ide/tools/bin/../lib/gcc/arm-none-eabi/7.2.1/../../../../arm-none-eabi/lib/thumb/v6-m\libc_nano.a(lib_a-sbrkr.o) (_sbrk)
c:/nxp/mcuxpressoide_10.2.1_795/ide/tools/bin/../lib/gcc/arm-none-eabi/7.2.1/../../../../arm-none-eabi/lib/thumb/v6-m\libcr_newlib_nohost.a(_exit.o)
                              c:/nxp/mcuxpressoide_10.2.1_795/ide/tools/bin/../lib/gcc/arm-none-eabi/7.2.1/../../../../arm-none-eabi/lib/thumb/v6-m\libc_nano.a(lib_a-abort.o) (_exit)
c:/nxp/mcuxpressoide_10.2.1_795/ide/tools/bin/../lib/gcc/arm-none-eabi/7.2.1/../../../../arm-none-eabi/lib/thumb/v6-m\libcr_newlib_nohost.a(getpid.o)
                              c:/nxp/mcuxpressoide_10.2.1_795/ide/tools/bin/../lib/gcc/arm-none-eabi/7.2.1/../../../../arm-none-eabi/lib/thumb/v6-m\libc_nano.a(lib_a-signalr.o) (_getpid)
c:/nxp/mcuxpressoide_10.2.1_795/ide/tools/bin/../lib/gcc/arm-none-eabi/7.2.1/../../../../arm-none-eabi/lib/thumb/v6-m\libcr_newlib_nohost.a(kill.o)
                              c:/nxp/mcuxpressoide_10.2.1_795/ide/tools/bin/../lib/gcc/arm-none-eabi/7.2.1/../../../../arm-none-eabi/lib/thumb/v6-m\libc_nano.a(lib_a-signalr.o) (_kill)
c:/nxp/mcuxpressoide_10.2.1_795/ide/tools/bin/../lib/gcc/arm-none-eabi/7.2.1/../../../../arm-none-eabi/lib/thumb/v6-m\libcr_newlib_nohost.a(_cr_check_heap.o)
                              c:/nxp/mcuxpressoide_10.2.1_795/ide/tools/bin/../lib/gcc/arm-none-eabi/7.2.1/../../../../arm-none-eabi/lib/thumb/v6-m\libcr_newlib_nohost.a(_cr_sbrk.o) (__check_heap_overflow)
c:/nxp/mcuxpressoide_10.2.1_795/ide/tools/bin/../lib/gcc/arm-none-eabi/7.2.1/../../../../arm-none-eabi/lib/thumb/v6-m\libc_nano.a(lib_a-errno.o)
                              c:/nxp/mcuxpressoide_10.2.1_795/ide/tools/bin/../lib/gcc/arm-none-eabi/7.2.1/../../../../arm-none-eabi/lib/thumb/v6-m\libcr_newlib_nohost.a(_cr_sbrk.o) (__errno)

Allocating common symbols
Common symbol       size              file

errno               0x4               c:/nxp/mcuxpressoide_10.2.1_795/ide/tools/bin/../lib/gcc/arm-none-eabi/7.2.1/../../../../arm-none-eabi/lib/thumb/v6-m\libc_nano.a(lib_a-reent.o)

Discarded input sections

 .group         0x00000000        0xc ./utilities/fsl_debug_console.o
 .group         0x00000000        0xc ./utilities/fsl_debug_console.o
 .group         0x00000000        0xc ./utilities/fsl_debug_console.o
 .group         0x00000000        0xc ./utilities/fsl_debug_console.o
 .group         0x00000000        0xc ./utilities/fsl_debug_console.o
 .group         0x00000000        0xc ./utilities/fsl_debug_console.o
 .group         0x00000000        0xc ./utilities/fsl_debug_console.o
 .group         0x00000000        0xc ./utilities/fsl_debug_console.o
 .group         0x00000000        0xc ./utilities/fsl_debug_console.o
 .group         0x00000000        0xc ./utilities/fsl_debug_console.o
 .group         0x00000000        0xc ./utilities/fsl_debug_console.o
 .group         0x00000000        0xc ./utilities/fsl_debug_console.o
 .group         0x00000000        0xc ./utilities/fsl_debug_console.o
 .group         0x00000000        0xc ./utilities/fsl_debug_console.o
 .group         0x00000000        0xc ./utilities/fsl_debug_console.o
 .group         0x00000000        0xc ./utilities/fsl_debug_console.o
 .group         0x00000000        0xc ./utilities/fsl_debug_console.o
 .group         0x00000000        0xc ./utilities/fsl_debug_console.o
Memory Configuration

Name             Origin             Length             Attributes
PROGRAM_FLASH    0x00000000         0x00020000         xr
SRAM             0x1ffff000         0x00004000         xrw
*default*        0x00000000         0xffffffff

Linker script and memory map

LOAD ./utilities/fsl_debug_console.o
LOAD ./startup/startup_mkl25z4.o
LOAD ./source/MKL25Z128xxx4_PIT.o
LOAD ./source/mtb.o
LOAD ./source/semihost_hardfault.o
LOAD ./drivers/fsl_adc16.o
LOAD ./drivers/fsl_clock.o
LOAD ./drivers/fsl_cmp.o
LOAD ./drivers/fsl_common.o
LOAD ./drivers/fsl_cop.o
LOAD ./drivers/fsl_dac.o
LOAD ./drivers/fsl_dma.o
LOAD ./drivers/fsl_dmamux.o
LOAD ./drivers/fsl_flash.o
LOAD ./drivers/fsl_gpio.o
LOAD ./drivers/fsl_i2c.o
LOAD ./drivers/fsl_i2c_dma.o
LOAD ./drivers/fsl_llwu.o
LOAD ./drivers/fsl_lpsci.o
LOAD ./drivers/fsl_lpsci_dma.o
LOAD ./drivers/fsl_lptmr.o
LOAD ./drivers/fsl_pit.o
LOAD ./drivers/fsl_pmc.o
LOAD ./drivers/fsl_rcm.o
LOAD ./drivers/fsl_rtc.o
LOAD ./drivers/fsl_sim.o
LOAD ./drivers/fsl_smc.o
LOAD ./drivers/fsl_spi.o
LOAD ./drivers/fsl_spi_dma.o
LOAD ./drivers/fsl_tpm.o
LOAD ./drivers/fsl_tsi_v4.o
LOAD ./drivers/fsl_uart.o
LOAD ./drivers/fsl_uart_dma.o
LOAD ./board/board.o
LOAD ./board/clock_config.o
LOAD ./board/peripherals.o
LOAD ./board/pin_mux.o
LOAD ./CMSIS/system_MKL25Z4.o
START GROUP
LOAD c:/nxp/mcuxpressoide_10.2.1_795/ide/tools/bin/../lib/gcc/arm-none-eabi/7.2.1/thumb/v6-m\libgcc.a
LOAD c:/nxp/mcuxpressoide_10.2.1_795/ide/tools/bin/../lib/gcc/arm-none-eabi/7.2.1/../../../../arm-none-eabi/lib/thumb/v6-m\libc_nano.a
LOAD c:/nxp/mcuxpressoide_10.2.1_795/ide/tools/bin/../lib/gcc/arm-none-eabi/7.2.1/../../../../arm-none-eabi/lib/thumb/v6-m\libstdc++_nano.a
LOAD c:/nxp/mcuxpressoide_10.2.1_795/ide/tools/bin/../lib/gcc/arm-none-eabi/7.2.1/../../../../arm-none-eabi/lib/thumb/v6-m\libm.a
LOAD c:/nxp/mcuxpressoide_10.2.1_795/ide/tools/bin/../lib/gcc/arm-none-eabi/7.2.1/../../../../arm-none-eabi/lib/thumb/v6-m\libcr_newlib_nohost.a
LOAD c:/nxp/mcuxpressoide_10.2.1_795/ide/tools/bin/../lib/gcc/arm-none-eabi/7.2.1/thumb/v6-m\crti.o
LOAD c:/nxp/mcuxpressoide_10.2.1_795/ide/tools/bin/../lib/gcc/arm-none-eabi/7.2.1/thumb/v6-m\crtn.o
LOAD c:/nxp/mcuxpressoide_10.2.1_795/ide/tools/bin/../lib/gcc/arm-none-eabi/7.2.1/thumb/v6-m\crtbegin.o
LOAD c:/nxp/mcuxpressoide_10.2.1_795/ide/tools/bin/../lib/gcc/arm-none-eabi/7.2.1/thumb/v6-m\crtend.o
END GROUP
                0x00000000                __base_PROGRAM_FLASH = 0x0
                0x00000000                __base_Flash = 0x0
                0x00020000                __top_PROGRAM_FLASH = 0x20000
                0x00020000                __top_Flash = 0x20000
                0x1ffff000                __base_SRAM = 0x1ffff000
                0x1ffff000                __base_RAM = 0x1ffff000
                0x20003000                __top_SRAM = 0x20003000
                0x20003000                __top_RAM = 0x20003000

.text           0x00000000     0x3a88
 FILL mask 0xff
                0x00000000                __vectors_start__ = ABSOLUTE (.)
 *(.isr_vector)
 .isr_vector    0x00000000       0xc0 ./startup/startup_mkl25z4.o
                0x00000000                g_pfnVectors
                0x00000000                __Vectors
                0x000000c0                . = ALIGN (0x4)
                0x000000c0                __section_table_start = .
                0x000000c0                __data_section_table = .
                0x000000c0        0x4 LONG 0x3bb0 LOADADDR (.data)
                0x000000c4        0x4 LONG 0x1ffff080 ADDR (.data)
                0x000000c8        0x4 LONG 0x6c SIZEOF (.data)
                0x000000cc                __data_section_table_end = .
                0x000000cc                __bss_section_table = .
                0x000000cc        0x4 LONG 0x1ffff0ec ADDR (.bss)
                0x000000d0        0x4 LONG 0x80 SIZEOF (.bss)
                0x000000d4                __bss_section_table_end = .
                0x000000d4                __section_table_end = .
 *(.after_vectors*)
 .after_vectors.init_data
                0x000000d4       0x16 ./startup/startup_mkl25z4.o
                0x000000d4                data_init(unsigned int, unsigned int, unsigned int)
 .after_vectors.init_bss
                0x000000ea       0x12 ./startup/startup_mkl25z4.o
                0x000000ea                bss_init(unsigned int, unsigned int)
 .after_vectors.reset
                0x000000fc       0x50 ./startup/startup_mkl25z4.o
                0x000000fc                ResetISR
 .after_vectors
                0x0000014c      0x10c ./startup/startup_mkl25z4.o
                0x0000014c                NMI_Handler
                0x00000150                SVC_Handler
                0x00000152                PendSV_Handler
                0x00000154                SysTick_Handler
                0x00000156                LPTMR0_DriverIRQHandler
                0x00000156                PORTD_DriverIRQHandler
                0x00000156                Reserved39_DriverIRQHandler
                0x00000156                CMP0_DriverIRQHandler
                0x00000156                ADC0_DriverIRQHandler
                0x00000156                TPM0_DriverIRQHandler
                0x00000156                TPM2_DriverIRQHandler
                0x00000156                PIT_DriverIRQHandler
                0x00000156                RTC_DriverIRQHandler
                0x00000156                TSI0_DriverIRQHandler
                0x00000156                RTC_Seconds_DriverIRQHandler
                0x00000156                TPM1_DriverIRQHandler
                0x00000156                PORTA_DriverIRQHandler
                0x00000156                LLWU_DriverIRQHandler
                0x00000156                MCG_DriverIRQHandler
                0x00000156                Reserved45_DriverIRQHandler
                0x00000156                Reserved20_DriverIRQHandler
                0x00000156                DAC0_DriverIRQHandler
                0x00000156                FTFA_DriverIRQHandler
                0x00000156                IntDefaultHandler
                0x00000156                USB0_DriverIRQHandler
                0x00000156                LVD_LVW_DriverIRQHandler
                0x00000158                DMA0_IRQHandler
                0x00000160                DMA1_IRQHandler
                0x00000168                DMA2_IRQHandler
                0x00000170                DMA3_IRQHandler
                0x00000178                Reserved20_IRQHandler
                0x00000180                FTFA_IRQHandler
                0x00000188                LVD_LVW_IRQHandler
                0x00000190                LLWU_IRQHandler
                0x00000198                I2C0_IRQHandler
                0x000001a0                I2C1_IRQHandler
                0x000001a8                SPI0_IRQHandler
                0x000001b0                SPI1_IRQHandler
                0x000001b8                UART0_IRQHandler
                0x000001c0                UART1_IRQHandler
                0x000001c8                UART2_IRQHandler
                0x000001d0                ADC0_IRQHandler
                0x000001d8                CMP0_IRQHandler
                0x000001e0                TPM0_IRQHandler
                0x000001e8                TPM1_IRQHandler
                0x000001f0                TPM2_IRQHandler
                0x000001f8                RTC_IRQHandler
                0x00000200                RTC_Seconds_IRQHandler
                0x00000208                PIT_IRQHandler
                0x00000210                Reserved39_IRQHandler
                0x00000218                USB0_IRQHandler
                0x00000220                DAC0_IRQHandler
                0x00000228                TSI0_IRQHandler
                0x00000230                MCG_IRQHandler
                0x00000238                LPTMR0_IRQHandler
                0x00000240                Reserved45_IRQHandler
                0x00000248                PORTA_IRQHandler
                0x00000250                PORTD_IRQHandler
                0x00000400                . = 0x400
 *fill*         0x00000258      0x1a8 ff
                0x00000400                PROVIDE (__FLASH_CONFIG_START__, .)
 *(.FlashConfig)
 .FlashConfig   0x00000400       0x10 ./startup/startup_mkl25z4.o
                0x00000410                PROVIDE (__FLASH_CONFIG_END__, .)
                0x00000001                ASSERT (! ((__FLASH_CONFIG_START__ == __FLASH_CONFIG_END__)), Linker Flash Config Support Enabled, but no .FlashConfig section provided within application)
 *(.text*)
 .text.UART_EnableTx
                0x00000410       0x40 ./utilities/fsl_debug_console.o
 .text.UART_EnableRx
                0x00000450       0x40 ./utilities/fsl_debug_console.o
 .text.LPSCI_EnableTx
                0x00000490       0x40 ./utilities/fsl_debug_console.o
 .text.LPSCI_EnableRx
                0x000004d0       0x40 ./utilities/fsl_debug_console.o
 .text.DbgConsole_Init
                0x00000510       0xf4 ./utilities/fsl_debug_console.o
                0x00000510                DbgConsole_Init
 .text.DbgConsole_Printf
                0x00000604       0x44 ./utilities/fsl_debug_console.o
                0x00000604                DbgConsole_Printf
 .text.DbgConsole_Putchar
                0x00000648       0x34 ./utilities/fsl_debug_console.o
                0x00000648                DbgConsole_Putchar
 .text.DbgConsole_PrintfPaddingCharacter
                0x0000067c       0x46 ./utilities/fsl_debug_console.o
 .text.DbgConsole_ConvertRadixNumToString
                0x000006c2      0x114 ./utilities/fsl_debug_console.o
 .text.DbgConsole_PrintfFormattedData
                0x000007d6      0x32c ./utilities/fsl_debug_console.o
 *fill*         0x00000b02        0x2 ff
 .text          0x00000b04       0x30 ./source/MKL25Z128xxx4_PIT.o
                0x00000b04                main
 .text.HardFault_Handler
                0x00000b34       0x30 ./source/semihost_hardfault.o
                0x00000b34                HardFault_Handler
 .text.CLOCK_SetEr32kClock
                0x00000b64       0x34 ./drivers/fsl_clock.o
 .text.CLOCK_SetPllFllSelClock
                0x00000b98       0x38 ./drivers/fsl_clock.o
 .text.OSC_SetExtRefClkConfig
                0x00000bd0       0x3e ./drivers/fsl_clock.o
 .text.OSC_SetCapLoad
                0x00000c0e       0x42 ./drivers/fsl_clock.o
 .text.CLOCK_GetMcgExtClkFreq
                0x00000c50       0x34 ./drivers/fsl_clock.o
 .text.CLOCK_GetFllExtRefClkFreq
                0x00000c84       0xa4 ./drivers/fsl_clock.o
 .text.CLOCK_GetFllRefClkFreq
                0x00000d28       0x2c ./drivers/fsl_clock.o
 .text.CLOCK_GetPll0RefFreq
                0x00000d54       0x10 ./drivers/fsl_clock.o
 .text.CLOCK_GetOscRangeFromFreq
                0x00000d64       0x4c ./drivers/fsl_clock.o
 .text.CLOCK_GetPllFllSelClkFreq
                0x00000db0       0x4c ./drivers/fsl_clock.o
                0x00000db0                CLOCK_GetPllFllSelClkFreq
 .text.CLOCK_SetSimConfig
                0x00000dfc       0x38 ./drivers/fsl_clock.o
                0x00000dfc                CLOCK_SetSimConfig
 .text.CLOCK_GetFllFreq
                0x00000e34       0x84 ./drivers/fsl_clock.o
                0x00000e34                CLOCK_GetFllFreq
 .text.CLOCK_GetPll0Freq
                0x00000eb8       0x80 ./drivers/fsl_clock.o
                0x00000eb8                CLOCK_GetPll0Freq
 .text.CLOCK_SetExternalRefClkConfig
                0x00000f38       0x16 ./drivers/fsl_clock.o
                0x00000f38                CLOCK_SetExternalRefClkConfig
 *fill*         0x00000f4e        0x2 ff
 .text.CLOCK_SetInternalRefClkConfig
                0x00000f50      0x128 ./drivers/fsl_clock.o
                0x00000f50                CLOCK_SetInternalRefClkConfig
 .text.CLOCK_EnablePll0
                0x00001078       0xa0 ./drivers/fsl_clock.o
                0x00001078                CLOCK_EnablePll0
 .text.CLOCK_InitOsc0
                0x00001118       0x94 ./drivers/fsl_clock.o
                0x00001118                CLOCK_InitOsc0
 .text.CLOCK_SetPbeMode
                0x000011ac       0xc0 ./drivers/fsl_clock.o
                0x000011ac                CLOCK_SetPbeMode
 .text.CLOCK_BootToPeeMode
                0x0000126c       0x80 ./drivers/fsl_clock.o
                0x0000126c                CLOCK_BootToPeeMode
 .text.__assert_func
                0x000012ec       0x28 ./drivers/fsl_common.o
                0x000012ec                __assert_func
 .text.DMA_ClearChannelStatusFlags
                0x00001314       0x64 ./drivers/fsl_dma.o
 .text.DMA_HandleIRQ
                0x00001378       0x60 ./drivers/fsl_dma.o
                0x00001378                DMA_HandleIRQ
 .text.DMA0_DriverIRQHandler
                0x000013d8       0x18 ./drivers/fsl_dma.o
                0x000013d8                DMA0_DriverIRQHandler
 .text.DMA1_DriverIRQHandler
                0x000013f0       0x18 ./drivers/fsl_dma.o
                0x000013f0                DMA1_DriverIRQHandler
 .text.DMA2_DriverIRQHandler
                0x00001408       0x18 ./drivers/fsl_dma.o
                0x00001408                DMA2_DriverIRQHandler
 .text.DMA3_DriverIRQHandler
                0x00001420       0x18 ./drivers/fsl_dma.o
                0x00001420                DMA3_DriverIRQHandler
 .text.I2C_TransferCommonIRQHandler
                0x00001438       0x54 ./drivers/fsl_i2c.o
 .text.I2C0_DriverIRQHandler
                0x0000148c       0x20 ./drivers/fsl_i2c.o
                0x0000148c                I2C0_DriverIRQHandler
 .text.I2C1_DriverIRQHandler
                0x000014ac       0x20 ./drivers/fsl_i2c.o
                0x000014ac                I2C1_DriverIRQHandler
 .text.CLOCK_EnableClock
                0x000014cc       0x34 ./drivers/fsl_lpsci.o
 .text.LPSCI_GetInstance
                0x00001500       0x54 ./drivers/fsl_lpsci.o
                0x00001500                LPSCI_GetInstance
 .text.LPSCI_Init
                0x00001554      0x270 ./drivers/fsl_lpsci.o
                0x00001554                LPSCI_Init
 .text.LPSCI_GetDefaultConfig
                0x000017c4       0x54 ./drivers/fsl_lpsci.o
                0x000017c4                LPSCI_GetDefaultConfig
 .text.LPSCI_GetStatusFlags
                0x00001818       0x26 ./drivers/fsl_lpsci.o
                0x00001818                LPSCI_GetStatusFlags
 *fill*         0x0000183e        0x2 ff
 .text.LPSCI_ClearStatusFlags
                0x00001840       0x94 ./drivers/fsl_lpsci.o
                0x00001840                LPSCI_ClearStatusFlags
 .text.LPSCI_WriteBlocking
                0x000018d4       0x5c ./drivers/fsl_lpsci.o
                0x000018d4                LPSCI_WriteBlocking
 .text.LPSCI_ReadBlocking
                0x00001930       0xd0 ./drivers/fsl_lpsci.o
                0x00001930                LPSCI_ReadBlocking
 .text.UART0_DriverIRQHandler
                0x00001a00       0x24 ./drivers/fsl_lpsci.o
                0x00001a00                UART0_DriverIRQHandler
 .text.SPI_CommonIRQHandler
                0x00001a24       0x54 ./drivers/fsl_spi.o
 .text.SPI0_DriverIRQHandler
                0x00001a78       0x40 ./drivers/fsl_spi.o
                0x00001a78                SPI0_DriverIRQHandler
 .text.SPI1_DriverIRQHandler
                0x00001ab8       0x40 ./drivers/fsl_spi.o
                0x00001ab8                SPI1_DriverIRQHandler
 .text.CLOCK_EnableClock
                0x00001af8       0x34 ./drivers/fsl_uart.o
 .text.UART_GetInstance
                0x00001b2c       0x60 ./drivers/fsl_uart.o
                0x00001b2c                UART_GetInstance
 .text.UART_Init
                0x00001b8c      0x1f8 ./drivers/fsl_uart.o
                0x00001b8c                UART_Init
 .text.UART_GetDefaultConfig
                0x00001d84       0x54 ./drivers/fsl_uart.o
                0x00001d84                UART_GetDefaultConfig
 .text.UART_GetStatusFlags
                0x00001dd8       0x26 ./drivers/fsl_uart.o
                0x00001dd8                UART_GetStatusFlags
 .text.UART_WriteBlocking
                0x00001dfe       0x3a ./drivers/fsl_uart.o
                0x00001dfe                UART_WriteBlocking
 .text.UART_ReadBlocking
                0x00001e38       0xa8 ./drivers/fsl_uart.o
                0x00001e38                UART_ReadBlocking
 .text.UART1_DriverIRQHandler
                0x00001ee0       0x24 ./drivers/fsl_uart.o
                0x00001ee0                UART1_DriverIRQHandler
 .text.UART2_DriverIRQHandler
                0x00001f04       0x24 ./drivers/fsl_uart.o
                0x00001f04                UART2_DriverIRQHandler
 .text.CLOCK_SetLpsci0Clock
                0x00001f28       0x38 ./board/board.o
 .text.BOARD_InitDebugConsole
                0x00001f60       0x30 ./board/board.o
                0x00001f60                BOARD_InitDebugConsole
 .text.CLOCK_SetSimSafeDivs
                0x00001f90       0x20 ./board/clock_config.o
 .text.CLOCK_SetXtal0Freq
                0x00001fb0       0x1c ./board/clock_config.o
 .text.BOARD_InitBootClocks
                0x00001fcc        0xe ./board/clock_config.o
                0x00001fcc                BOARD_InitBootClocks
 *fill*         0x00001fda        0x2 ff
 .text.CLOCK_CONFIG_SetFllExtRefDiv
                0x00001fdc       0x3c ./board/clock_config.o
 .text.BOARD_BootClockRUN
                0x00002018       0x64 ./board/clock_config.o
                0x00002018                BOARD_BootClockRUN
 .text.BOARD_InitBootPeripherals
                0x0000207c        0xa ./board/peripherals.o
                0x0000207c                BOARD_InitBootPeripherals
 *fill*         0x00002086        0x2 ff
 .text.CLOCK_EnableClock
                0x00002088       0x34 ./board/pin_mux.o
 .text.PORT_SetPinMux
                0x000020bc       0x40 ./board/pin_mux.o
 .text.BOARD_InitBootPins
                0x000020fc        0xe ./board/pin_mux.o
                0x000020fc                BOARD_InitBootPins
 *fill*         0x0000210a        0x2 ff
 .text.BOARD_InitPins
                0x0000210c       0x4c ./board/pin_mux.o
                0x0000210c                BOARD_InitPins
 .text.SystemInit
                0x00002158       0x18 ./CMSIS/system_MKL25Z4.o
                0x00002158                SystemInit
 .text          0x00002170      0x114 c:/nxp/mcuxpressoide_10.2.1_795/ide/tools/bin/../lib/gcc/arm-none-eabi/7.2.1/thumb/v6-m\libgcc.a(_udivsi3.o)
                0x00002170                __aeabi_uidiv
                0x00002170                __udivsi3
                0x0000227c                __aeabi_uidivmod
 .text          0x00002284      0x1d4 c:/nxp/mcuxpressoide_10.2.1_795/ide/tools/bin/../lib/gcc/arm-none-eabi/7.2.1/thumb/v6-m\libgcc.a(_divsi3.o)
                0x00002284                __divsi3
                0x00002284                __aeabi_idiv
                0x00002450                __aeabi_idivmod
 .text          0x00002458        0x4 c:/nxp/mcuxpressoide_10.2.1_795/ide/tools/bin/../lib/gcc/arm-none-eabi/7.2.1/thumb/v6-m\libgcc.a(_dvmd_tls.o)
                0x00002458                __aeabi_idiv0
                0x00002458                __aeabi_ldiv0
 .text          0x0000245c      0xa08 c:/nxp/mcuxpressoide_10.2.1_795/ide/tools/bin/../lib/gcc/arm-none-eabi/7.2.1/thumb/v6-m\libgcc.a(unwind-arm.o)
                0x00002718                _Unwind_GetCFA
                0x0000271c                __gnu_Unwind_RaiseException
                0x00002770                __gnu_Unwind_ForcedUnwind
                0x00002784                __gnu_Unwind_Resume
                0x000027cc                __gnu_Unwind_Resume_or_Rethrow
                0x000027e8                _Unwind_Complete
                0x000027ec                _Unwind_DeleteException
                0x000027fc                _Unwind_VRS_Get
                0x00002844                _Unwind_VRS_Set
                0x0000288c                __gnu_Unwind_Backtrace
                0x00002bdc                __aeabi_unwind_cpp_pr0
                0x00002be8                __aeabi_unwind_cpp_pr1
                0x00002bf4                __aeabi_unwind_cpp_pr2
                0x00002c00                _Unwind_VRS_Pop
 .text          0x00002e64      0x144 c:/nxp/mcuxpressoide_10.2.1_795/ide/tools/bin/../lib/gcc/arm-none-eabi/7.2.1/thumb/v6-m\libgcc.a(libunwind.o)
                0x00002e64                __restore_core_regs
                0x00002e64                restore_core_regs
                0x00002e90                __gnu_Unwind_Restore_VFP
                0x00002e94                __gnu_Unwind_Save_VFP
                0x00002e98                __gnu_Unwind_Restore_VFP_D
                0x00002e9c                __gnu_Unwind_Save_VFP_D
                0x00002ea0                __gnu_Unwind_Restore_VFP_D_16_to_31
                0x00002ea4                __gnu_Unwind_Save_VFP_D_16_to_31
                0x00002ea8                __gnu_Unwind_Restore_WMMXD
                0x00002eac                __gnu_Unwind_Save_WMMXD
                0x00002eb0                __gnu_Unwind_Restore_WMMXC
                0x00002eb4                __gnu_Unwind_Save_WMMXC
                0x00002eb8                ___Unwind_RaiseException
                0x00002eb8                _Unwind_RaiseException
                0x00002ee8                _Unwind_Resume
                0x00002ee8                ___Unwind_Resume
                0x00002f18                _Unwind_Resume_or_Rethrow
                0x00002f18                ___Unwind_Resume_or_Rethrow
                0x00002f48                _Unwind_ForcedUnwind
                0x00002f48                ___Unwind_ForcedUnwind
                0x00002f78                ___Unwind_Backtrace
                0x00002f78                _Unwind_Backtrace
 .text          0x00002fa8      0x39c c:/nxp/mcuxpressoide_10.2.1_795/ide/tools/bin/../lib/gcc/arm-none-eabi/7.2.1/thumb/v6-m\libgcc.a(pr-support.o)
                0x00002ffc                __gnu_unwind_execute
                0x000032ec                __gnu_unwind_frame
                0x00003314                _Unwind_GetRegionStart
                0x00003320                _Unwind_GetLanguageSpecificData
                0x00003334                _Unwind_GetDataRelBase
                0x0000333c                _Unwind_GetTextRelBase
 .text.abort    0x00003344        0xe c:/nxp/mcuxpressoide_10.2.1_795/ide/tools/bin/../lib/gcc/arm-none-eabi/7.2.1/../../../../arm-none-eabi/lib/thumb/v6-m\libc_nano.a(lib_a-abort.o)
                0x00003344                abort
 *fill*         0x00003352        0x2 ff
 .text.__libc_init_array
                0x00003354       0x48 c:/nxp/mcuxpressoide_10.2.1_795/ide/tools/bin/../lib/gcc/arm-none-eabi/7.2.1/../../../../arm-none-eabi/lib/thumb/v6-m\libc_nano.a(lib_a-init.o)
                0x00003354                __libc_init_array
 .text.memcpy   0x0000339c       0x12 c:/nxp/mcuxpressoide_10.2.1_795/ide/tools/bin/../lib/gcc/arm-none-eabi/7.2.1/../../../../arm-none-eabi/lib/thumb/v6-m\libc_nano.a(lib_a-memcpy-stub.o)
                0x0000339c                memcpy
 .text._raise_r
                0x000033ae       0x54 c:/nxp/mcuxpressoide_10.2.1_795/ide/tools/bin/../lib/gcc/arm-none-eabi/7.2.1/../../../../arm-none-eabi/lib/thumb/v6-m\libc_nano.a(lib_a-signal.o)
                0x000033ae                _raise_r
 *fill*         0x00003402        0x2 ff
 .text.raise    0x00003404       0x14 c:/nxp/mcuxpressoide_10.2.1_795/ide/tools/bin/../lib/gcc/arm-none-eabi/7.2.1/../../../../arm-none-eabi/lib/thumb/v6-m\libc_nano.a(lib_a-signal.o)
                0x00003404                raise
 .text._kill_r  0x00003418       0x24 c:/nxp/mcuxpressoide_10.2.1_795/ide/tools/bin/../lib/gcc/arm-none-eabi/7.2.1/../../../../arm-none-eabi/lib/thumb/v6-m\libc_nano.a(lib_a-signalr.o)
                0x00003418                _kill_r
 .text._getpid_r
                0x0000343c        0x8 c:/nxp/mcuxpressoide_10.2.1_795/ide/tools/bin/../lib/gcc/arm-none-eabi/7.2.1/../../../../arm-none-eabi/lib/thumb/v6-m\libc_nano.a(lib_a-signalr.o)
                0x0000343c                _getpid_r
 .text          0x00003444        0xe c:/nxp/mcuxpressoide_10.2.1_795/ide/tools/bin/../lib/gcc/arm-none-eabi/7.2.1/../../../../arm-none-eabi/lib/thumb/v6-m\libc_nano.a(lib_a-strlen.o)
                0x00003444                strlen
 .text._exit    0x00003452        0x2 c:/nxp/mcuxpressoide_10.2.1_795/ide/tools/bin/../lib/gcc/arm-none-eabi/7.2.1/../../../../arm-none-eabi/lib/thumb/v6-m\libcr_newlib_nohost.a(_exit.o)
                0x00003452                _exit
 .text._getpid  0x00003454       0x10 c:/nxp/mcuxpressoide_10.2.1_795/ide/tools/bin/../lib/gcc/arm-none-eabi/7.2.1/../../../../arm-none-eabi/lib/thumb/v6-m\libcr_newlib_nohost.a(getpid.o)
                0x00003454                _getpid
 .text._kill    0x00003464       0x10 c:/nxp/mcuxpressoide_10.2.1_795/ide/tools/bin/../lib/gcc/arm-none-eabi/7.2.1/../../../../arm-none-eabi/lib/thumb/v6-m\libcr_newlib_nohost.a(kill.o)
                0x00003464                _kill
 .text          0x00003474       0x48 c:/nxp/mcuxpressoide_10.2.1_795/ide/tools/bin/../lib/gcc/arm-none-eabi/7.2.1/thumb/v6-m\crtbegin.o
 *(.rodata .rodata.* .constdata .constdata.*)
 .rodata        0x000034bc        0xd ./source/MKL25Z128xxx4_PIT.o
 *fill*         0x000034c9        0x3 ff
 .rodata        0x000034cc       0x47 ./drivers/fsl_clock.o
 *fill*         0x00003513        0x1 ff
 .rodata.__func__.5287
                0x00003514       0x17 ./drivers/fsl_clock.o
 *fill*         0x0000352b        0x1 ff
 .rodata.fllFactorTable.5393
                0x0000352c       0x10 ./drivers/fsl_clock.o
 .rodata.__func__.5408
                0x0000353c       0x12 ./drivers/fsl_clock.o
 *fill*         0x0000354e        0x2 ff
 .rodata.__func__.5448
                0x00003550       0x11 ./drivers/fsl_clock.o
 *fill*         0x00003561        0x3 ff
 .rodata.__func__.5585
                0x00003564       0x11 ./drivers/fsl_clock.o
 *fill*         0x00003575        0x3 ff
 .rodata.__func__.5652
                0x00003578       0x14 ./drivers/fsl_clock.o
 .rodata        0x0000358c       0x3e ./drivers/fsl_common.o
 *fill*         0x000035ca        0x2 ff
 .rodata        0x000035cc      0x168 ./drivers/fsl_dma.o
 .rodata.__func__.5552
                0x00003734        0xe ./drivers/fsl_dma.o
 *fill*         0x00003742        0x2 ff
 .rodata.__func__.5420
                0x00003744       0x1c ./drivers/fsl_dma.o
 .rodata        0x00003760       0xb2 ./drivers/fsl_lpsci.o
 *fill*         0x00003812        0x2 ff
 .rodata.__func__.5468
                0x00003814       0x12 ./drivers/fsl_lpsci.o
 *fill*         0x00003826        0x2 ff
 .rodata.__func__.5504
                0x00003828        0xb ./drivers/fsl_lpsci.o
 *fill*         0x00003833        0x1 ff
 .rodata.__func__.5525
                0x00003834       0x17 ./drivers/fsl_lpsci.o
 *fill*         0x0000384b        0x1 ff
 .rodata.__func__.5570
                0x0000384c       0x14 ./drivers/fsl_lpsci.o
 .rodata.__func__.5582
                0x00003860       0x13 ./drivers/fsl_lpsci.o
 *fill*         0x00003873        0x1 ff
 .rodata        0x00003874       0x9b ./drivers/fsl_spi.o
 *fill*         0x0000390f        0x1 ff
 .rodata.__func__.5659
                0x00003910       0x16 ./drivers/fsl_spi.o
 *fill*         0x00003926        0x2 ff
 .rodata.__func__.5663
                0x00003928       0x16 ./drivers/fsl_spi.o
 *fill*         0x0000393e        0x2 ff
 .rodata.s_uartBases
                0x00003940        0xc ./drivers/fsl_uart.o
 .rodata.s_uartClock
                0x0000394c        0xc ./drivers/fsl_uart.o
 .rodata        0x00003958       0xaa ./drivers/fsl_uart.o
 *fill*         0x00003a02        0x2 ff
 .rodata.__func__.5471
                0x00003a04       0x11 ./drivers/fsl_uart.o
 *fill*         0x00003a15        0x3 ff
 .rodata.__func__.5487
                0x00003a18        0xa ./drivers/fsl_uart.o
 *fill*         0x00003a22        0x2 ff
 .rodata.__func__.5500
                0x00003a24       0x16 ./drivers/fsl_uart.o
 *fill*         0x00003a3a        0x2 ff
 .rodata.__func__.5558
                0x00003a3c       0x12 ./drivers/fsl_uart.o
 *fill*         0x00003a4e        0x2 ff
 .rodata.mcgConfig_BOARD_BootClockRUN
                0x00003a50        0xa ./board/clock_config.o
                0x00003a50                mcgConfig_BOARD_BootClockRUN
 *fill*         0x00003a5a        0x2 ff
 .rodata.simConfig_BOARD_BootClockRUN
                0x00003a5c        0x8 ./board/clock_config.o
                0x00003a5c                simConfig_BOARD_BootClockRUN
 .rodata.oscConfig_BOARD_BootClockRUN
                0x00003a64        0x8 ./board/clock_config.o
                0x00003a64                oscConfig_BOARD_BootClockRUN
                0x00003a6c                . = ALIGN (0x4)
                0x00003a6c                . = ALIGN (0x4)
 *(.init)
 .init          0x00003a6c        0x4 c:/nxp/mcuxpressoide_10.2.1_795/ide/tools/bin/../lib/gcc/arm-none-eabi/7.2.1/thumb/v6-m\crti.o
                0x00003a6c                _init
 .init          0x00003a70        0x8 c:/nxp/mcuxpressoide_10.2.1_795/ide/tools/bin/../lib/gcc/arm-none-eabi/7.2.1/thumb/v6-m\crtn.o
                0x00003a78                . = ALIGN (0x4)
                0x00003a78                __preinit_array_start = .
 *(.preinit_array)
                0x00003a78                __preinit_array_end = .
                0x00003a78                . = ALIGN (0x4)
                0x00003a78                __init_array_start = .
 *(SORT_BY_NAME(.init_array.*))
 *(.init_array)
 .init_array    0x00003a78        0x4 c:/nxp/mcuxpressoide_10.2.1_795/ide/tools/bin/../lib/gcc/arm-none-eabi/7.2.1/thumb/v6-m\crtbegin.o
                0x00003a7c                __init_array_end = .
 *(.fini)
 .fini          0x00003a7c        0x4 c:/nxp/mcuxpressoide_10.2.1_795/ide/tools/bin/../lib/gcc/arm-none-eabi/7.2.1/thumb/v6-m\crti.o
                0x00003a7c                _fini
 .fini          0x00003a80        0x8 c:/nxp/mcuxpressoide_10.2.1_795/ide/tools/bin/../lib/gcc/arm-none-eabi/7.2.1/thumb/v6-m\crtn.o
                0x00003a88                . = ALIGN (0x4)
 *crtbegin.o(.ctors)
 *(EXCLUDE_FILE(*crtend.o) .ctors)
 *(SORT_BY_NAME(.ctors.*))
 *crtend.o(.ctors)
                0x00003a88                . = ALIGN (0x4)
 *crtbegin.o(.dtors)
 *(EXCLUDE_FILE(*crtend.o) .dtors)
 *(SORT_BY_NAME(.dtors.*))
 *crtend.o(.dtors)
                0x00003a88                . = ALIGN (0x4)

.glue_7         0x00003a88        0x0
 .glue_7        0x00003a88        0x0 linker stubs

.glue_7t        0x00003a88        0x0
 .glue_7t       0x00003a88        0x0 linker stubs

.vfp11_veneer   0x00003a88        0x0
 .vfp11_veneer  0x00003a88        0x0 linker stubs

.v4_bx          0x00003a88        0x0
 .v4_bx         0x00003a88        0x0 linker stubs

.iplt           0x00003a88        0x0
 .iplt          0x00003a88        0x0 ./utilities/fsl_debug_console.o

.ARM.extab      0x00003a88       0x30
 *(.ARM.extab* .gnu.linkonce.armextab.*)
 .ARM.extab     0x00003a88       0x24 c:/nxp/mcuxpressoide_10.2.1_795/ide/tools/bin/../lib/gcc/arm-none-eabi/7.2.1/thumb/v6-m\libgcc.a(unwind-arm.o)
 .ARM.extab     0x00003aac        0xc c:/nxp/mcuxpressoide_10.2.1_795/ide/tools/bin/../lib/gcc/arm-none-eabi/7.2.1/thumb/v6-m\libgcc.a(pr-support.o)
                0x00003ab8                __exidx_start = .

.eh_frame       0x00003ab8        0x0
 .eh_frame      0x00003ab8        0x0 c:/nxp/mcuxpressoide_10.2.1_795/ide/tools/bin/../lib/gcc/arm-none-eabi/7.2.1/thumb/v6-m\crtbegin.o

.ARM.exidx      0x00003ab8       0xf8
 *(.ARM.exidx* .gnu.linkonce.armexidx.*)
 .ARM.exidx.after_vectors.init_data
                0x00003ab8        0x8 ./startup/startup_mkl25z4.o
 .ARM.exidx.after_vectors.init_bss
                0x00003ac0        0x0 ./startup/startup_mkl25z4.o
                                  0x8 (size before relaxing)
 .ARM.exidx.after_vectors.reset
                0x00003ac0        0x8 ./startup/startup_mkl25z4.o
 .ARM.exidx.after_vectors
                0x00003ac8       0x18 ./startup/startup_mkl25z4.o
                                0x130 (size before relaxing)
 .ARM.exidx     0x00003ae0       0x10 ./source/MKL25Z128xxx4_PIT.o
                                  0x8 (size before relaxing)
 .ARM.exidx     0x00003af0       0x90 c:/nxp/mcuxpressoide_10.2.1_795/ide/tools/bin/../lib/gcc/arm-none-eabi/7.2.1/thumb/v6-m\libgcc.a(unwind-arm.o)
                                 0xd8 (size before relaxing)
 .ARM.exidx     0x00003b80       0x30 c:/nxp/mcuxpressoide_10.2.1_795/ide/tools/bin/../lib/gcc/arm-none-eabi/7.2.1/thumb/v6-m\libgcc.a(pr-support.o)
                                 0x48 (size before relaxing)
                0x00003bb0                __exidx_end = .
                0x00003bb0                _etext = .

.rel.dyn        0x00003bb0        0x0
 .rel.iplt      0x00003bb0        0x0 ./utilities/fsl_debug_console.o

.m_usb_data
 *(m_usb_bdt)

.mtb_buffer_default
                0x1ffff000       0x80
 *(.mtb*)
 .mtb.$RAM1     0x1ffff000       0x80 ./source/mtb.o
                0x1ffff000                __mtb_buffer__

.uninit_RESERVED
                0x1ffff080        0x0
 *(.bss.$RESERVED*)
                0x1ffff080                . = ALIGN (0x4)
                0x1ffff080                _end_uninit_RESERVED = .

.data           0x1ffff080       0x6c load address 0x00003bb0
 FILL mask 0xff
                0x1ffff080                _data = .
 *(vtable)
 *(.ramfunc*)
 *(.data*)
 .data.s_slowIrcFreq
                0x1ffff080        0x4 ./drivers/fsl_clock.o
 .data.SystemCoreClock
                0x1ffff084        0x4 ./CMSIS/system_MKL25Z4.o
                0x1ffff084                SystemCoreClock
 .data._impure_ptr
                0x1ffff088        0x4 c:/nxp/mcuxpressoide_10.2.1_795/ide/tools/bin/../lib/gcc/arm-none-eabi/7.2.1/../../../../arm-none-eabi/lib/thumb/v6-m\libc_nano.a(lib_a-impure.o)
                0x1ffff088                _impure_ptr
 .data.impure_data
                0x1ffff08c       0x60 c:/nxp/mcuxpressoide_10.2.1_795/ide/tools/bin/../lib/gcc/arm-none-eabi/7.2.1/../../../../arm-none-eabi/lib/thumb/v6-m\libc_nano.a(lib_a-impure.o)
                0x1ffff0ec                . = ALIGN (0x4)
                0x1ffff0ec                _edata = .

.igot.plt       0x1ffff0ec        0x0 load address 0x00003c1c
 .igot.plt      0x1ffff0ec        0x0 ./utilities/fsl_debug_console.o

.bss            0x1ffff0ec       0x80 load address 0x00003c1c
                0x1ffff0ec                _bss = .
 *(.bss*)
 .bss.s_debugConsole
                0x1ffff0ec       0x10 ./utilities/fsl_debug_console.o
 .bss           0x1ffff0fc        0x4 ./source/MKL25Z128xxx4_PIT.o
 .bss.g_xtal0Freq
                0x1ffff100        0x4 ./drivers/fsl_clock.o
                0x1ffff100                g_xtal0Freq
 .bss.s_DMAHandle
                0x1ffff104       0x10 ./drivers/fsl_dma.o
 .bss.s_i2cHandle
                0x1ffff114        0x8 ./drivers/fsl_i2c.o
 .bss.s_i2cMasterIsr
                0x1ffff11c        0x4 ./drivers/fsl_i2c.o
 .bss.s_i2cSlaveIsr
                0x1ffff120        0x4 ./drivers/fsl_i2c.o
 .bss.s_lpsciHandle
                0x1ffff124        0x4 ./drivers/fsl_lpsci.o
 .bss.s_lpsciIsr
                0x1ffff128        0x4 ./drivers/fsl_lpsci.o
 .bss.s_spiHandle
                0x1ffff12c        0x8 ./drivers/fsl_spi.o
 .bss.s_spiMasterIsr
                0x1ffff134        0x4 ./drivers/fsl_spi.o
 .bss.s_spiSlaveIsr
                0x1ffff138        0x4 ./drivers/fsl_spi.o
 .bss.s_uartHandle
                0x1ffff13c        0xc ./drivers/fsl_uart.o
 .bss.s_uartIsr
                0x1ffff148        0x4 ./drivers/fsl_uart.o
 .bss           0x1ffff14c       0x1c c:/nxp/mcuxpressoide_10.2.1_795/ide/tools/bin/../lib/gcc/arm-none-eabi/7.2.1/thumb/v6-m\crtbegin.o
 *(COMMON)
 COMMON         0x1ffff168        0x4 c:/nxp/mcuxpressoide_10.2.1_795/ide/tools/bin/../lib/gcc/arm-none-eabi/7.2.1/../../../../arm-none-eabi/lib/thumb/v6-m\libc_nano.a(lib_a-reent.o)
                0x1ffff168                errno
                0x1ffff16c                . = ALIGN (0x4)
                0x1ffff16c                _ebss = .
                [!provide]                PROVIDE (end, .)

.noinit         0x1ffff16c        0x0 load address 0x00003c1c
                0x1ffff16c                _noinit = .
 *(.noinit*)
                0x1ffff16c                . = ALIGN (0x4)
                0x1ffff16c                _end_noinit = .
                0x00000400                _HeapSize = 0x400

.heap           0x1ffff16c      0x400 load address 0x00003c1c
                0x1ffff16c                _pvHeapStart = .
                0x1ffff56c                . = (. + _HeapSize)
 *fill*         0x1ffff16c      0x400 
                0x1ffff56c                . = ALIGN (0x4)
                0x1ffff56c                _pvHeapLimit = .
                0x00000400                _StackSize = 0x400

.heap2stackfill
                0x1ffff56c      0x400 load address 0x00003c1c
                0x1ffff96c                . = (. + _StackSize)
 *fill*         0x1ffff56c      0x400 

.stack          0x20002c00        0x0
                0x20002c00                _vStackBase = .
                0x20002c00                . = ALIGN (0x4)
                0x20003000                _vStackTop = (. + _StackSize)
                0x00000000                _image_start = LOADADDR (.text)
                0x00003c1c                _image_end = (LOADADDR (.data) + SIZEOF (.data))
                0x00003c1c                _image_size = (_image_end - _image_start)
OUTPUT(MKL25Z128xxx4_PIT.axf elf32-littlearm)

.debug_info     0x00000000    0x11c4d
 .debug_info    0x00000000     0x161c ./utilities/fsl_debug_console.o
 .debug_info    0x0000161c      0x49e ./startup/startup_mkl25z4.o
 .debug_info    0x00001aba      0xbf6 ./source/MKL25Z128xxx4_PIT.o
 .debug_info    0x000026b0       0x52 ./source/mtb.o
 .debug_info    0x00002702       0x3b ./source/semihost_hardfault.o
 .debug_info    0x0000273d     0x225e ./drivers/fsl_clock.o
 .debug_info    0x0000499b      0xc3e ./drivers/fsl_common.o
 .debug_info    0x000055d9     0x185f ./drivers/fsl_dma.o
 .debug_info    0x00006e38     0x2355 ./drivers/fsl_i2c.o
 .debug_info    0x0000918d     0x1dd2 ./drivers/fsl_lpsci.o
 .debug_info    0x0000af5f     0x1cd8 ./drivers/fsl_spi.o
 .debug_info    0x0000cc37     0x1d58 ./drivers/fsl_uart.o
 .debug_info    0x0000e98f      0xea0 ./board/board.o
 .debug_info    0x0000f82f     0x1285 ./board/clock_config.o
 .debug_info    0x00010ab4       0x3b ./board/peripherals.o
 .debug_info    0x00010aef      0xd74 ./board/pin_mux.o
 .debug_info    0x00011863      0x3ea ./CMSIS/system_MKL25Z4.o

.debug_abbrev   0x00000000     0x281a
 .debug_abbrev  0x00000000      0x335 ./utilities/fsl_debug_console.o
 .debug_abbrev  0x00000335      0x163 ./startup/startup_mkl25z4.o
 .debug_abbrev  0x00000498      0x1ee ./source/MKL25Z128xxx4_PIT.o
 .debug_abbrev  0x00000686       0x44 ./source/mtb.o
 .debug_abbrev  0x000006ca       0x2f ./source/semihost_hardfault.o
 .debug_abbrev  0x000006f9      0x3df ./drivers/fsl_clock.o
 .debug_abbrev  0x00000ad8      0x32e ./drivers/fsl_common.o
 .debug_abbrev  0x00000e06      0x340 ./drivers/fsl_dma.o
 .debug_abbrev  0x00001146      0x3d2 ./drivers/fsl_i2c.o
 .debug_abbrev  0x00001518      0x375 ./drivers/fsl_lpsci.o
 .debug_abbrev  0x0000188d      0x375 ./drivers/fsl_spi.o
 .debug_abbrev  0x00001c02      0x38d ./drivers/fsl_uart.o
 .debug_abbrev  0x00001f8f      0x228 ./board/board.o
 .debug_abbrev  0x000021b7      0x2b5 ./board/clock_config.o
 .debug_abbrev  0x0000246c       0x2f ./board/peripherals.o
 .debug_abbrev  0x0000249b      0x269 ./board/pin_mux.o
 .debug_abbrev  0x00002704      0x116 ./CMSIS/system_MKL25Z4.o

.debug_aranges  0x00000000      0xb18
 .debug_aranges
                0x00000000       0x90 ./utilities/fsl_debug_console.o
 .debug_aranges
                0x00000090      0x160 ./startup/startup_mkl25z4.o
 .debug_aranges
                0x000001f0       0x20 ./source/MKL25Z128xxx4_PIT.o
 .debug_aranges
                0x00000210       0x18 ./source/mtb.o
 .debug_aranges
                0x00000228       0x20 ./source/semihost_hardfault.o
 .debug_aranges
                0x00000248      0x1d8 ./drivers/fsl_clock.o
 .debug_aranges
                0x00000420       0x38 ./drivers/fsl_common.o
 .debug_aranges
                0x00000458       0xd0 ./drivers/fsl_dma.o
 .debug_aranges
                0x00000528      0x178 ./drivers/fsl_i2c.o
 .debug_aranges
                0x000006a0      0x118 ./drivers/fsl_lpsci.o
 .debug_aranges
                0x000007b8      0x130 ./drivers/fsl_spi.o
 .debug_aranges
                0x000008e8      0x130 ./drivers/fsl_uart.o
 .debug_aranges
                0x00000a18       0x28 ./board/board.o
 .debug_aranges
                0x00000a40       0x58 ./board/clock_config.o
 .debug_aranges
                0x00000a98       0x20 ./board/peripherals.o
 .debug_aranges
                0x00000ab8       0x38 ./board/pin_mux.o
 .debug_aranges
                0x00000af0       0x28 ./CMSIS/system_MKL25Z4.o

.debug_ranges   0x00000000      0x9f0
 .debug_ranges  0x00000000       0x80 ./utilities/fsl_debug_console.o
 .debug_ranges  0x00000080      0x150 ./startup/startup_mkl25z4.o
 .debug_ranges  0x000001d0       0x10 ./source/semihost_hardfault.o
 .debug_ranges  0x000001e0      0x1c8 ./drivers/fsl_clock.o
 .debug_ranges  0x000003a8       0x28 ./drivers/fsl_common.o
 .debug_ranges  0x000003d0       0xc0 ./drivers/fsl_dma.o
 .debug_ranges  0x00000490      0x168 ./drivers/fsl_i2c.o
 .debug_ranges  0x000005f8      0x108 ./drivers/fsl_lpsci.o
 .debug_ranges  0x00000700      0x120 ./drivers/fsl_spi.o
 .debug_ranges  0x00000820      0x120 ./drivers/fsl_uart.o
 .debug_ranges  0x00000940       0x18 ./board/board.o
 .debug_ranges  0x00000958       0x48 ./board/clock_config.o
 .debug_ranges  0x000009a0       0x10 ./board/peripherals.o
 .debug_ranges  0x000009b0       0x28 ./board/pin_mux.o
 .debug_ranges  0x000009d8       0x18 ./CMSIS/system_MKL25Z4.o

.debug_macro    0x00000000     0xb9db
 .debug_macro   0x00000000      0x221 ./utilities/fsl_debug_console.o
 .debug_macro   0x00000221      0xa72 ./utilities/fsl_debug_console.o
 .debug_macro   0x00000c93       0x58 ./utilities/fsl_debug_console.o
 .debug_macro   0x00000ceb       0x17 ./utilities/fsl_debug_console.o
 .debug_macro   0x00000d02       0x22 ./utilities/fsl_debug_console.o
 .debug_macro   0x00000d24       0x52 ./utilities/fsl_debug_console.o
 .debug_macro   0x00000d76       0x8d ./utilities/fsl_debug_console.o
 .debug_macro   0x00000e03       0x35 ./utilities/fsl_debug_console.o
 .debug_macro   0x00000e38       0x9c ./utilities/fsl_debug_console.o
 .debug_macro   0x00000ed4       0x16 ./utilities/fsl_debug_console.o
 .debug_macro   0x00000eea      0x10e ./utilities/fsl_debug_console.o
 .debug_macro   0x00000ff8       0x8d ./utilities/fsl_debug_console.o
 .debug_macro   0x00001085       0x57 ./utilities/fsl_debug_console.o
 .debug_macro   0x000010dc       0x58 ./utilities/fsl_debug_console.o
 .debug_macro   0x00001134       0x1f ./utilities/fsl_debug_console.o
 .debug_macro   0x00001153       0x43 ./utilities/fsl_debug_console.o
 .debug_macro   0x00001196       0x20 ./utilities/fsl_debug_console.o
 .debug_macro   0x000011b6      0x18e ./utilities/fsl_debug_console.o
 .debug_macro   0x00001344      0x330 ./utilities/fsl_debug_console.o
 .debug_macro   0x00001674       0x16 ./utilities/fsl_debug_console.o
 .debug_macro   0x0000168a       0x29 ./utilities/fsl_debug_console.o
 .debug_macro   0x000016b3      0x1e1 ./utilities/fsl_debug_console.o
 .debug_macro   0x00001894       0x1c ./utilities/fsl_debug_console.o
 .debug_macro   0x000018b0       0x22 ./utilities/fsl_debug_console.o
 .debug_macro   0x000018d2       0xef ./utilities/fsl_debug_console.o
 .debug_macro   0x000019c1       0x6a ./utilities/fsl_debug_console.o
 .debug_macro   0x00001a2b      0x1df ./utilities/fsl_debug_console.o
 .debug_macro   0x00001c0a       0x16 ./utilities/fsl_debug_console.o
 .debug_macro   0x00001c20       0x35 ./utilities/fsl_debug_console.o
 .debug_macro   0x00001c55       0x10 ./utilities/fsl_debug_console.o
 .debug_macro   0x00001c65       0x3f ./utilities/fsl_debug_console.o
 .debug_macro   0x00001ca4       0x3a ./utilities/fsl_debug_console.o
 .debug_macro   0x00001cde       0x26 ./utilities/fsl_debug_console.o
 .debug_macro   0x00001d04      0x329 ./utilities/fsl_debug_console.o
 .debug_macro   0x0000202d       0x30 ./utilities/fsl_debug_console.o
 .debug_macro   0x0000205d     0x51e2 ./utilities/fsl_debug_console.o
 .debug_macro   0x0000723f     0x1352 ./utilities/fsl_debug_console.o
 .debug_macro   0x00008591       0x3a ./utilities/fsl_debug_console.o
 .debug_macro   0x000085cb       0xf4 ./utilities/fsl_debug_console.o
 .debug_macro   0x000086bf       0x35 ./utilities/fsl_debug_console.o
 .debug_macro   0x000086f4       0x34 ./utilities/fsl_debug_console.o
 .debug_macro   0x00008728       0x10 ./utilities/fsl_debug_console.o
 .debug_macro   0x00008738       0x10 ./utilities/fsl_debug_console.o
 .debug_macro   0x00008748       0x2a ./startup/startup_mkl25z4.o
 .debug_macro   0x00008772      0xb5c ./startup/startup_mkl25z4.o
 .debug_macro   0x000092ce      0x2c6 ./source/MKL25Z128xxx4_PIT.o
 .debug_macro   0x00009594       0x9c ./source/MKL25Z128xxx4_PIT.o
 .debug_macro   0x00009630       0x16 ./source/MKL25Z128xxx4_PIT.o
 .debug_macro   0x00009646       0x97 ./source/MKL25Z128xxx4_PIT.o
 .debug_macro   0x000096dd      0x353 ./source/MKL25Z128xxx4_PIT.o
 .debug_macro   0x00009a30      0x104 ./source/MKL25Z128xxx4_PIT.o
 .debug_macro   0x00009b34       0x10 ./source/MKL25Z128xxx4_PIT.o
 .debug_macro   0x00009b44       0x43 ./source/MKL25Z128xxx4_PIT.o
 .debug_macro   0x00009b87       0x10 ./source/MKL25Z128xxx4_PIT.o
 .debug_macro   0x00009b97       0x1c ./source/MKL25Z128xxx4_PIT.o
 .debug_macro   0x00009bb3       0x52 ./source/MKL25Z128xxx4_PIT.o
 .debug_macro   0x00009c05       0x40 ./source/MKL25Z128xxx4_PIT.o
 .debug_macro   0x00009c45       0x10 ./source/MKL25Z128xxx4_PIT.o
 .debug_macro   0x00009c55       0x40 ./source/MKL25Z128xxx4_PIT.o
 .debug_macro   0x00009c95       0xd7 ./source/MKL25Z128xxx4_PIT.o
 .debug_macro   0x00009d6c       0x1c ./source/MKL25Z128xxx4_PIT.o
 .debug_macro   0x00009d88       0x3d ./source/MKL25Z128xxx4_PIT.o
 .debug_macro   0x00009dc5       0x16 ./source/MKL25Z128xxx4_PIT.o
 .debug_macro   0x00009ddb      0x137 ./source/MKL25Z128xxx4_PIT.o
 .debug_macro   0x00009f12       0x16 ./source/MKL25Z128xxx4_PIT.o
 .debug_macro   0x00009f28       0x16 ./source/MKL25Z128xxx4_PIT.o
 .debug_macro   0x00009f3e       0x1c ./source/MKL25Z128xxx4_PIT.o
 .debug_macro   0x00009f5a       0x35 ./source/MKL25Z128xxx4_PIT.o
 .debug_macro   0x00009f8f      0x329 ./source/MKL25Z128xxx4_PIT.o
 .debug_macro   0x0000a2b8       0x16 ./source/MKL25Z128xxx4_PIT.o
 .debug_macro   0x0000a2ce       0x10 ./source/MKL25Z128xxx4_PIT.o
 .debug_macro   0x0000a2de      0x112 ./source/MKL25Z128xxx4_PIT.o
 .debug_macro   0x0000a3f0       0x3a ./source/MKL25Z128xxx4_PIT.o
 .debug_macro   0x0000a42a       0x2f ./source/mtb.o
 .debug_macro   0x0000a459       0x82 ./source/mtb.o
 .debug_macro   0x0000a4db       0x10 ./source/mtb.o
 .debug_macro   0x0000a4eb       0x11 ./source/semihost_hardfault.o
 .debug_macro   0x0000a4fc      0x26a ./drivers/fsl_clock.o
 .debug_macro   0x0000a766      0x1c3 ./drivers/fsl_common.o
 .debug_macro   0x0000a929      0x1c0 ./drivers/fsl_dma.o
 .debug_macro   0x0000aae9      0x1bf ./drivers/fsl_i2c.o
 .debug_macro   0x0000aca8       0x10 ./drivers/fsl_i2c.o
 .debug_macro   0x0000acb8      0x1c0 ./drivers/fsl_lpsci.o
 .debug_macro   0x0000ae78      0x1bf ./drivers/fsl_spi.o
 .debug_macro   0x0000b037       0x10 ./drivers/fsl_spi.o
 .debug_macro   0x0000b047      0x1c6 ./drivers/fsl_uart.o
 .debug_macro   0x0000b20d      0x1e6 ./board/board.o
 .debug_macro   0x0000b3f3       0x87 ./board/board.o
 .debug_macro   0x0000b47a       0x51 ./board/board.o
 .debug_macro   0x0000b4cb       0x58 ./board/board.o
 .debug_macro   0x0000b523      0x1f7 ./board/clock_config.o
 .debug_macro   0x0000b71a       0x1b ./board/peripherals.o
 .debug_macro   0x0000b735      0x1db ./board/pin_mux.o
 .debug_macro   0x0000b910       0x10 ./board/pin_mux.o
 .debug_macro   0x0000b920       0xbb ./CMSIS/system_MKL25Z4.o

.debug_line     0x00000000     0x562f
 .debug_line    0x00000000      0x819 ./utilities/fsl_debug_console.o
 .debug_line    0x00000819      0x13a ./startup/startup_mkl25z4.o
 .debug_line    0x00000953      0x48b ./source/MKL25Z128xxx4_PIT.o
 .debug_line    0x00000dde       0x9a ./source/mtb.o
 .debug_line    0x00000e78       0x54 ./source/semihost_hardfault.o
 .debug_line    0x00000ecc      0xad1 ./drivers/fsl_clock.o
 .debug_line    0x0000199d      0x3e5 ./drivers/fsl_common.o
 .debug_line    0x00001d82      0x633 ./drivers/fsl_dma.o
 .debug_line    0x000023b5      0xb23 ./drivers/fsl_i2c.o
 .debug_line    0x00002ed8      0x880 ./drivers/fsl_lpsci.o
 .debug_line    0x00003758      0x7dc ./drivers/fsl_spi.o
 .debug_line    0x00003f34      0x883 ./drivers/fsl_uart.o
 .debug_line    0x000047b7      0x3b0 ./board/board.o
 .debug_line    0x00004b67      0x411 ./board/clock_config.o
 .debug_line    0x00004f78       0x58 ./board/peripherals.o
 .debug_line    0x00004fd0      0x3ac ./board/pin_mux.o
 .debug_line    0x0000537c      0x2b3 ./CMSIS/system_MKL25Z4.o

.debug_str      0x00000000    0x3b8ee
 .debug_str     0x00000000    0x33e58 ./utilities/fsl_debug_console.o
                              0x3439d (size before relaxing)
 .debug_str     0x00033e58      0x961 ./startup/startup_mkl25z4.o
                               0x34da (size before relaxing)
 .debug_str     0x000347b9     0x209e ./source/MKL25Z128xxx4_PIT.o
                              0x35062 (size before relaxing)
 .debug_str     0x00036857      0x532 ./source/mtb.o
                               0x3202 (size before relaxing)
 .debug_str     0x00036d89       0x1f ./source/semihost_hardfault.o
                               0x2cef (size before relaxing)
 .debug_str     0x00036da8     0x15ae ./drivers/fsl_clock.o
                              0x349fe (size before relaxing)
 .debug_str     0x00038356      0x2d6 ./drivers/fsl_common.o
                              0x32fde (size before relaxing)
 .debug_str     0x0003862c      0x7e5 ./drivers/fsl_dma.o
                              0x33cc1 (size before relaxing)
 .debug_str     0x00038e11      0xc0a ./drivers/fsl_i2c.o
                              0x341d8 (size before relaxing)
 .debug_str     0x00039a1b      0x921 ./drivers/fsl_lpsci.o
                              0x34006 (size before relaxing)
 .debug_str     0x0003a33c      0x7b8 ./drivers/fsl_spi.o
                              0x33dc8 (size before relaxing)
 .debug_str     0x0003aaf4      0x832 ./drivers/fsl_uart.o
                              0x34029 (size before relaxing)
 .debug_str     0x0003b326       0x4c ./board/board.o
                              0x33b3c (size before relaxing)
 .debug_str     0x0003b372      0x300 ./board/clock_config.o
                              0x3390e (size before relaxing)
 .debug_str     0x0003b672       0x31 ./board/peripherals.o
                               0x2d00 (size before relaxing)
 .debug_str     0x0003b6a3      0x1fc ./board/pin_mux.o
                              0x33071 (size before relaxing)
 .debug_str     0x0003b89f       0x4f ./CMSIS/system_MKL25Z4.o
                              0x2f37a (size before relaxing)

.comment        0x00000000       0x7e
 .comment       0x00000000       0x7e ./utilities/fsl_debug_console.o
                                 0x7f (size before relaxing)
 .comment       0x0000007e       0x7f ./startup/startup_mkl25z4.o
 .comment       0x0000007e       0x7f ./source/MKL25Z128xxx4_PIT.o
 .comment       0x0000007e       0x7f ./source/mtb.o
 .comment       0x0000007e       0x7f ./source/semihost_hardfault.o
 .comment       0x0000007e       0x7f ./drivers/fsl_clock.o
 .comment       0x0000007e       0x7f ./drivers/fsl_common.o
 .comment       0x0000007e       0x7f ./drivers/fsl_dma.o
 .comment       0x0000007e       0x7f ./drivers/fsl_i2c.o
 .comment       0x0000007e       0x7f ./drivers/fsl_lpsci.o
 .comment       0x0000007e       0x7f ./drivers/fsl_spi.o
 .comment       0x0000007e       0x7f ./drivers/fsl_uart.o
 .comment       0x0000007e       0x7f ./board/board.o
 .comment       0x0000007e       0x7f ./board/clock_config.o
 .comment       0x0000007e       0x7f ./board/peripherals.o
 .comment       0x0000007e       0x7f ./board/pin_mux.o
 .comment       0x0000007e       0x7f ./CMSIS/system_MKL25Z4.o

.ARM.attributes
                0x00000000       0x30
 .ARM.attributes
                0x00000000       0x32 ./utilities/fsl_debug_console.o
 .ARM.attributes
                0x00000032       0x32 ./startup/startup_mkl25z4.o
 .ARM.attributes
                0x00000064       0x32 ./source/MKL25Z128xxx4_PIT.o
 .ARM.attributes
                0x00000096       0x32 ./source/mtb.o
 .ARM.attributes
                0x000000c8       0x32 ./source/semihost_hardfault.o
 .ARM.attributes
                0x000000fa       0x32 ./drivers/fsl_clock.o
 .ARM.attributes
                0x0000012c       0x32 ./drivers/fsl_common.o
 .ARM.attributes
                0x0000015e       0x32 ./drivers/fsl_dma.o
 .ARM.attributes
                0x00000190       0x32 ./drivers/fsl_i2c.o
 .ARM.attributes
                0x000001c2       0x32 ./drivers/fsl_lpsci.o
 .ARM.attributes
                0x000001f4       0x32 ./drivers/fsl_spi.o
 .ARM.attributes
                0x00000226       0x32 ./drivers/fsl_uart.o
 .ARM.attributes
                0x00000258       0x32 ./board/board.o
 .ARM.attributes
                0x0000028a       0x32 ./board/clock_config.o
 .ARM.attributes
                0x000002bc       0x32 ./board/peripherals.o
 .ARM.attributes
                0x000002ee       0x32 ./board/pin_mux.o
 .ARM.attributes
                0x00000320       0x32 ./CMSIS/system_MKL25Z4.o
 .ARM.attributes
                0x00000352       0x1e c:/nxp/mcuxpressoide_10.2.1_795/ide/tools/bin/../lib/gcc/arm-none-eabi/7.2.1/thumb/v6-m\libgcc.a(_udivsi3.o)
 .ARM.attributes
                0x00000370       0x1e c:/nxp/mcuxpressoide_10.2.1_795/ide/tools/bin/../lib/gcc/arm-none-eabi/7.2.1/thumb/v6-m\libgcc.a(_divsi3.o)
 .ARM.attributes
                0x0000038e       0x1e c:/nxp/mcuxpressoide_10.2.1_795/ide/tools/bin/../lib/gcc/arm-none-eabi/7.2.1/thumb/v6-m\libgcc.a(_dvmd_tls.o)
 .ARM.attributes
                0x000003ac       0x2c c:/nxp/mcuxpressoide_10.2.1_795/ide/tools/bin/../lib/gcc/arm-none-eabi/7.2.1/../../../../arm-none-eabi/lib/thumb/v6-m\libc_nano.a(lib_a-init.o)
 .ARM.attributes
                0x000003d8       0x1c c:/nxp/mcuxpressoide_10.2.1_795/ide/tools/bin/../lib/gcc/arm-none-eabi/7.2.1/../../../../arm-none-eabi/lib/thumb/v6-m\libc_nano.a(lib_a-strlen.o)
 .ARM.attributes
                0x000003f4       0x1e c:/nxp/mcuxpressoide_10.2.1_795/ide/tools/bin/../lib/gcc/arm-none-eabi/7.2.1/thumb/v6-m\crti.o
 .ARM.attributes
                0x00000412       0x1e c:/nxp/mcuxpressoide_10.2.1_795/ide/tools/bin/../lib/gcc/arm-none-eabi/7.2.1/thumb/v6-m\crtn.o
 .ARM.attributes
                0x00000430       0x2c c:/nxp/mcuxpressoide_10.2.1_795/ide/tools/bin/../lib/gcc/arm-none-eabi/7.2.1/thumb/v6-m\crtbegin.o

.debug_frame    0x00000000     0x2574
 .debug_frame   0x00000000      0x1f0 ./utilities/fsl_debug_console.o
 .debug_frame   0x000001f0      0x3b0 ./startup/startup_mkl25z4.o
 .debug_frame   0x000005a0       0x2c ./source/MKL25Z128xxx4_PIT.o
 .debug_frame   0x000005cc       0x20 ./source/semihost_hardfault.o
 .debug_frame   0x000005ec      0x6e4 ./drivers/fsl_clock.o
 .debug_frame   0x00000cd0       0x90 ./drivers/fsl_common.o
 .debug_frame   0x00000d60      0x2e0 ./drivers/fsl_dma.o
 .debug_frame   0x00001040      0x588 ./drivers/fsl_i2c.o
 .debug_frame   0x000015c8      0x418 ./drivers/fsl_lpsci.o
 .debug_frame   0x000019e0      0x470 ./drivers/fsl_spi.o
 .debug_frame   0x00001e50      0x468 ./drivers/fsl_uart.o
 .debug_frame   0x000022b8       0x50 ./board/board.o
 .debug_frame   0x00002308      0x100 ./board/clock_config.o
 .debug_frame   0x00002408       0x2c ./board/peripherals.o
 .debug_frame   0x00002434       0x88 ./board/pin_mux.o
 .debug_frame   0x000024bc       0x4c ./CMSIS/system_MKL25Z4.o
 .debug_frame   0x00002508       0x20 c:/nxp/mcuxpressoide_10.2.1_795/ide/tools/bin/../lib/gcc/arm-none-eabi/7.2.1/thumb/v6-m\libgcc.a(_udivsi3.o)
 .debug_frame   0x00002528       0x20 c:/nxp/mcuxpressoide_10.2.1_795/ide/tools/bin/../lib/gcc/arm-none-eabi/7.2.1/thumb/v6-m\libgcc.a(_divsi3.o)
 .debug_frame   0x00002548       0x2c c:/nxp/mcuxpressoide_10.2.1_795/ide/tools/bin/../lib/gcc/arm-none-eabi/7.2.1/../../../../arm-none-eabi/lib/thumb/v6-m\libc_nano.a(lib_a-init.o)
